:100000000C942A000C94CA0E0C94E60E0C940A0F61
:100010000C9447000C9447000C9447000C94470044
:100020000C9447000C9447000C9447000C942E0F3E
:100030000C9447000C9447000C9447000C94470024
:100040000C9447000C9447000C9447000C94470014
:100050000C94470011241FBECFE5D8E0DEBFCDBF12
:1000600010E0A0E6B0E0E6E6F0E202C005900D92F6
:10007000AA36B107D9F710E0AAE6B0E001C01D9298
:10008000AC38B107E1F70E94B50D0C9431100C9417
:100090000000EF92FF920F931F937B018C0120E0F1
:1000A00030E040E05FE40E94490388238CF0C801FF
:1000B000B70120E030E040E05FE40E94C1010E940F
:1000C000A9039B01AC01205030404040504806C07D
:1000D000C801B7010E94A9039B01AC01B901CA0183
:1000E0001F910F91FF90EF900895A0E0B0E0EBE733
:1000F000F0E00C94FA0FDC012B01FA019C91923094
:1001000008F439C1EB018881823008F433C194309E
:1001100069F4843009F02FC111969C91119789815F
:10012000981709F428C1A0E6B0E025C1843009F48D
:1001300021C18230A9F4923009F01DC19A01AD01AC
:1001400088E0EA010990AE01E90109929E0181501F
:10015000C1F7E201898111969C918923818308C1AD
:10016000923009F407C112962D903C901397EB0141
:100170008A819B811496AD90BD90CD90DC901797AD
:10018000EC80FD800E811F819101281B390BB90184
:1001900037FF04C066277727621B730B6032710537
:1001A0000CF061C0121613066CF537014801062EDB
:1001B00004C096948794779467940A94D2F721E0C8
:1001C00030E040E050E004C0220F331F441F551FB1
:1001D0006A95D2F721503040404050402E213F21B7
:1001E00040235123211531054105510521F021E01E
:1001F00030E040E050E079018A01E628F72808293C
:1002000019293CC0232BD1F1260E371E350146019A
:10021000062E04C096948794779467940A94D2F734
:1002200021E030E040E050E004C0220F331F441FC3
:10023000551F6A95D2F721503040404050402A2146
:100240003B214C215D21211531054105510521F04E
:1002500021E030E040E050E059016A01A628B728CB
:10026000C828D9280BC0821593052CF01C01AA249C
:10027000BB24650103C0EE24FF24870111969C91E5
:10028000D20111968C91981709F445C0992339F041
:10029000A80197012A193B094C095D0906C0A6016E
:1002A00095012E193F09400B510B57FD08C01182D3
:1002B0003382228224833583468357831DC081E0A5
:1002C00081833382228288279927DC01821B930B4A
:1002D000A40BB50B84839583A683B7830DC0220F2F
:1002E000331F441F551F24833583468357838281E0
:1002F000938101979383828324813581468157813D
:10030000DA01C9010197A109B1098F5F9F4FAF4F72
:10031000BF4328F30BC0918333822282EA0CFB1C7B
:100320000C1D1D1DE482F5820683178383E0808304
:10033000248135814681578157FF1AC0C901AA27F8
:1003400097FDA095BA2F81709070A070B0705695EF
:10035000479537952795822B932BA42BB52B848318
:100360009583A683B7838281938101969383828349
:10037000DF0101C0D201CD01CDB7DEB7E2E10C94BF
:100380001610A0E2B0E0E7ECF1E00C9406106983EF
:100390007A838B839C832D833E834F835887E9E048
:1003A000EE2EF12CEC0EFD1ECE010196B7010E943F
:1003B000D2048E010F5E1F4FCE010596B8010E9438
:1003C000D2048A8991E089278A8BC701B801AE01DE
:1003D000475E5F4F0E9475000E94FD03A096E6E015
:1003E0000C942210A0E2B0E0E8EFF1E00C940610CB
:1003F00069837A838B839C832D833E834F835887C5
:10040000F9E0EF2EF12CEC0EFD1ECE010196B701A6
:100410000E94D2048E010F5E1F4FCE010596B801D7
:100420000E94D204C701B801AE01475E5F4F0E942F
:1004300075000E94FD03A096E6E00C942210A0E255
:10044000B0E0E5E2F2E00C94FA0F69837A838B83E3
:100450009C832D833E834F835887CE010196BE0136
:10046000675F7F4F0E94D204CE010596BE016F5E8A
:100470007F4F0E94D2049985923088F0898982301A
:10048000C8F0943019F4823051F404C0843029F457
:10049000923081F480E690E0C6C0923049F420E0CA
:1004A0009A858A89981321E02A87CE010996BBC0D4
:1004B000823049F420E09A858A89981321E02A8BBA
:1004C000CE014196B0C02D843E844F8458886D88FB
:1004D0007E888F88988CEE24FF248701AA24BB2471
:1004E000650140E050E060E070E0E0E0F0E0C10174
:1004F00081709070892BE9F0E60CF71C081D191D1E
:100500009A01AB012A0D3B1D4C1D5D1D80E090E062
:10051000A0E0B0E0E614F7040805190520F481E036
:1005200090E0A0E0B0E0BA01A901480F591F6A1F8E
:100530007B1FAA0CBB1CCC1CDD1C97FE08C081E0F5
:1005400090E0A0E0B0E0A82AB92ACA2ADB2A3196B6
:10055000E032F10549F0660C771C881C991C569412
:10056000479437942794C3CFFA85EA892B893C892D
:100570008B859C85280F391F2E5F3F4F17C0CA01FE
:1005800081709070892B61F016950795F794E79428
:1005900080E090E0A0E0B0E8E82AF92A0A2B1B2BC3
:1005A00076956795579547952F5F3F4F77FDE7CF36
:1005B0000CC0440F551F661F771F17FD4160EE0CDE
:1005C000FF1C001F111F21503040403090E05907A0
:1005D00090E0690790E4790760F32B8F3C8FDB0193
:1005E000CA018F779070A070B07080349105A1051A
:1005F000B10561F447FD0AC0E114F10401051105DC
:1006000029F0405C5F4F6F4F7F4F40781A8EFE1786
:1006100011F081E08A8F4D8F5E8F6F8F78A383E01A
:10062000898FCE0149960E94FD03A096E2E10C94C9
:100630001610A8E1B0E0EFE1F3E00C940610698336
:100640007A838B839C832D833E834F83588789E0F5
:10065000E82EF12CEC0EFD1ECE010196B7010E9492
:10066000D2048E010F5E1F4FCE010596B8010E9485
:10067000D2048985823040F08989823028F0C70110
:10068000B8010E944A0501C08FEF6896E6E00C941D
:100690002210A8E1B0E0EFE4F3E00C9406106983C7
:1006A0007A838B839C832D833E834F83588789E095
:1006B000E82EF12CEC0EFD1ECE010196B7010E9432
:1006C000D2048E010F5E1F4FCE010596B8010E9425
:1006D000D2048985823040F08989823028F0C701B0
:1006E000B8010E944A0501C08FEF6896E6E00C94BD
:1006F0002210A8E1B0E0EFE7F3E00C940610698364
:100700007A838B839C832D833E834F83588789E034
:10071000E82EF12CEC0EFD1ECE010196B7010E94D1
:10072000D2048E010F5E1F4FCE010596B8010E94C4
:10073000D2048985823040F08989823028F0C7014F
:10074000B8010E944A0501C081E06896E6E00C9479
:100750002210ACE0B0E0EFEAF3E00C940A106983F9
:100760007A838B839C83CE010196BE016B5F7F4FA2
:100770000E94D2048D81823061F1823050F1843048
:1007800021F48E81882351F12EC02F81388537FDC9
:1007900020C06E812F3131051CF06623F9F023C093
:1007A0008EE190E0821B930B29853A854B855C8511
:1007B00004C056954795379527958A95D2F76623B5
:1007C000B1F050954095309521953F4F4F4F5F4F79
:1007D0000EC020E030E040E050E009C02FEF3FEFD6
:1007E0004FEF5FE704C020E030E040E050E8B9019F
:1007F000CA012C96E2E00C942610DF92EF92FF9251
:100800000F931F93FC01E480F58006811781D1804E
:100810008081823048F480E090E0A0E1B0E0E82AF6
:10082000F92A0A2B1B2BA5C0843009F49FC0823003
:1008300021F4EE24FF24870105C0E114F104010531
:10084000110519F4E0E0F0E096C0628173819FEF3A
:10085000623879070CF05BC022E83FEF261B370BAC
:100860002A3131052CF020E030E040E050E02AC091
:10087000B801A701022E04C0769567955795479554
:100880000A94D2F781E090E0A0E0B0E004C0880FC5
:10089000991FAA1FBB1F2A95D2F70197A109B10979
:1008A0008E219F21A023B1230097A105B10521F03E
:1008B00081E090E0A0E0B0E09A01AB01282B392B59
:1008C0004A2B5B2BDA01C9018F779070A070B07052
:1008D00080349105A105B10539F427FF09C0205CDA
:1008E0003F4F4F4F5F4F04C0215C3F4F4F4F5F4F13
:1008F000E0E0F0E02030A0E03A07A0E04A07A0E402
:100900005A0710F0E1E0F0E079018A0127C0603871
:10091000710564F5FB01E158FF4FD801C7018F77DE
:100920009070A070B07080349105A105B10539F4C4
:10093000E7FE0DC080E490E0A0E0B0E004C08FE3EB
:1009400090E0A0E0B0E0E80EF91E0A1F1B1F17FFA1
:1009500005C016950795F794E794319687E01695AC
:100960000795F794E7948A95D1F705C0EE24FF2404
:100970008701EFEFF0E06E2F679566276795902F60
:100980009F77D794DD24D7948E2F8695492F462BB9
:10099000582F5D29B701CA011F910F91FF90EF9069
:1009A000DF900895FC01DB01408151812281622F9B
:1009B0006F7770E0221F2227221F9381892F880FD3
:1009C000822B282F30E0991F9927991F11969C930D
:1009D000119721153105A9F54115510561057105DD
:1009E00011F482E037C082E89FEF13969C938E93B8
:1009F00012979A01AB0167E0220F331F441F551F66
:100A00006A95D1F783E08C930DC0220F331F441FEA
:100A1000551F12968D919C911397019713969C9355
:100A20008E931297203080E0380780E0480780E4FA
:100A3000580758F314962D933D934D935C93179755
:100A400008952F3F310579F4411551056105710570
:100A500019F484E08C93089564FF03C081E08C93C3
:100A600012C01C9210C02F57304013963C932E9307
:100A7000129783E08C9387E0440F551F661F771F02
:100A80008A95D1F7706414964D935D936D937C9322
:100A9000179708951F93DC01FB019C91923008F495
:100AA00047C08081823008F443C0943051F41196DD
:100AB0001C91843099F58181682F70E0611B710968
:100AC0003FC0843021F0923031F48230B9F181811D
:100AD000882389F12DC011961C9111978230F1F075
:100AE00081811817D9F412962D913C911397828128
:100AF00093818217930794F028173907BCF0149656
:100B00008D919D910D90BC91A02D248135814681C0
:100B10005781281739074A075B0718F4112341F05A
:100B20000AC082179307A407B50740F4112319F0F0
:100B300061E070E005C06FEF7FEF02C060E070E041
:100B4000CB011F910895DF93CF93CDB7DEB7A7E216
:100B5000B0E0E7E2F0E0808180648C93A7E2B0E04F
:100B6000E7E2F0E080818F778C93A7E2B0E0E7E2E4
:100B7000F0E080818F7D8C93A6E2B0E0E6E2F0E0C9
:100B8000808184608C93A6E2B0E0E6E2F0E08081B0
:100B900082608C93A6E2B0E0E6E2F0E080818160C2
:100BA0008C93A6E2B0E0E6E2F0E0808180688C936E
:100BB000CF91DF910895DF93CF9300D00F92CDB7FF
:100BC000DEB78B831A8219828B8187708B83A7E2B1
:100BD000B0E0E7E2F0E08081807E8C93A7E2B0E0B5
:100BE000E7E2F0E090818B81892B8C93A6E2B0E064
:100BF000E6E2F0E0808180648C93E6E2F0E08081C0
:100C000082958F70882F90E0817090700097A9F383
:100C1000E4E2F0E0808191819A83898389819A81DD
:100C20000F900F900F90CF91DF910895DF93CF93A6
:100C3000CDB7DEB7A7E2B0E0E7E2F0E08081806404
:100C40008C93A7E2B0E0E7E2F0E080818F778C93AD
:100C5000A7E2B0E0E7E2F0E080818F7D8C93A6E22E
:100C6000B0E0E6E2F0E0808184608C93A6E2B0E040
:100C7000E6E2F0E0808182608C93A6E2B0E0E6E2FA
:100C8000F0E0808181608C93A6E2B0E0E6E2F0E0E3
:100C9000808180688C93A6E2B0E0E6E2F0E080819B
:100CA00088608C93CF91DF910895DF93CF930F925B
:100CB000CDB7DEB78983898187708983A7E2B0E0E9
:100CC000E7E2F0E08081807E8C93A7E2B0E0E7E28B
:100CD000F0E090818981892B8C93A6E2B0E0E6E276
:100CE000F0E0808180648C930F90CF91DF91089524
:100CF000DF93CF93CDB7DEB7E4E2F0E0808191815E
:100D0000CF91DF910895DF93CF93CDB7DEB72897CA
:100D10000FB6F894DEBF0FBECDBF8A836B834C83C2
:100D200081E089838A81883008F0F1C08C8181302C
:100D300009F071C08B81282F30E038872F838F8195
:100D400098858130910549F12F8138852230310510
:100D50002CF48F819885009761F05BC02F813885D6
:100D60002230310571F18F81988583309105E9F149
:100D700050C0AAE3B0E0EAE3F0E08081482F8A8126
:100D8000282F30E081E090E0022E02C0880F991FEA
:100D90000A94E2F7842B8C93BBC0A7E3B0E0E7E3AF
:100DA000F0E08081482F8A81282F30E081E090E0B8
:100DB000022E02C0880F991F0A94E2F7842B8C93AD
:100DC000A7C0A4E3B0E0E4E3F0E08081482F8A818B
:100DD000282F30E081E090E0022E02C0880F991F9A
:100DE0000A94E2F7842B8C9393C0A1E3B0E0E1E393
:100DF000F0E08081482F8A81282F30E081E090E068
:100E0000022E02C0880F991F0A94E2F7842B8C935C
:100E10007FC019827DC08C81882309F076C08B81C8
:100E2000282F30E03E832D838D819E818130910576
:100E300059F12D813E81223031052CF48D819E8126
:100E4000009769F060C02D813E812230310589F123
:100E50008D819E818330910509F440C054C0AAE37E
:100E6000B0E0EAE3F0E08081482F8A81282F30E06B
:100E700081E090E0022E02C0880F991F0A94E2F7E9
:100E8000809584238C9344C0A7E3B0E0E7E3F0E0CF
:100E90008081482F8A81282F30E081E090E0022E67
:100EA00002C0880F991F0A94E2F7809584238C93DF
:100EB0002FC0A4E3B0E0E4E3F0E08081482F8A8112
:100EC000282F30E081E090E0022E02C0880F991FA9
:100ED0000A94E2F7809584238C931AC0A1E3B0E0D2
:100EE000E1E3F0E08081482F8A81282F30E081E023
:100EF00090E0022E02C0880F991F0A94E2F78095B5
:100F000084238C9305C0198203C0198201C0198201
:100F1000898128960FB6F894DEBF0FBECDBFCF9162
:100F2000DF910895DF93CF9300D000D000D0CDB7EC
:100F3000DEB78A836B834C8381E089838B81282F82
:100F400030E03E832D838D819E818130910509F4AF
:100F500048C02D813E81223031052CF48D819E8147
:100F6000009771F0D1C02D813E812230310509F406
:100F700069C08D819E818330910509F494C0C4C0FD
:100F80008C818130A1F4ABE3B0E0EBE3F0E0808151
:100F9000482F8A81282F30E081E090E0022E02C0A5
:100FA000880F991F0A94E2F7842B8C93AEC08C8132
:100FB0008823A9F4ABE3B0E0EBE3F0E08081482FB5
:100FC0008A81282F30E081E090E0022E02C0880F55
:100FD000991F0A94E2F7809584238C9396C0198216
:100FE00094C08C818130A1F4A8E3B0E0E8E3F0E0A4
:100FF0008081482F8A81282F30E081E090E0022E06
:1010000002C0880F991F0A94E2F7842B8C937DC04D
:101010008C818823A9F4A8E3B0E0E8E3F0E08081C4
:10102000482F8A81282F30E081E090E0022E02C014
:10103000880F991F0A94E2F7809584238C9365C0EA
:10104000198263C08C818130A1F4A5E3B0E0E5E3AF
:10105000F0E08081482F8A81282F30E081E090E005
:10106000022E02C0880F991F0A94E2F7842B8C93FA
:101070004CC08C818823A9F4A5E3B0E0E5E3F0E05F
:101080008081482F8A81282F30E081E090E0022E75
:1010900002C0880F991F0A94E2F7809584238C93ED
:1010A00034C0198232C08C818130A1F4A2E3B0E057
:1010B000E2E3F0E08081482F8A81282F30E081E050
:1010C00090E0022E02C0880F991F0A94E2F7842B49
:1010D0008C931BC08C818823A9F4A2E3B0E0E2E3E7
:1010E000F0E08081482F8A81282F30E081E090E075
:1010F000022E02C0880F991F0A94E2F7809584237C
:101100008C9303C0198201C01982898126960FB67B
:10111000F894DEBF0FBECDBFCF91DF910895DF936E
:10112000CF93CDB7DEB728970FB6F894DEBF0FBECA
:10113000CDBF8A836B835D834C8381E089838A8101
:10114000883010F0188674C08B81282F30E03F83E0
:101150002E834E815F814130510559F18E819F81EF
:101160008230910534F42E813F812115310569F0DB
:101170005CC04E815F814230510579F18E819F8143
:101180008330910509F43DC050C0EBE3F0E080816D
:10119000282F30E08A81882F90E0A90102C0559560
:1011A00047958A95E2F7CA018170EC81FD818083C1
:1011B0003DC0E8E3F0E08081282F30E08A81882F6D
:1011C00090E0A90102C0559547958A95E2F7CA01BA
:1011D0008170EC81FD81808329C0E5E3F0E08081AE
:1011E000282F30E08A81882F90E0A90102C0559510
:1011F00047958A95E2F7CA018170EC81FD81808371
:1012000015C0E2E3F0E08081282F30E08A81882F4A
:1012100090E0A90102C0559547958A95E2F7CA0169
:101220008170EC81FD81808301C0198259815887CA
:10123000888528960FB6F894DEBF0FBECDBFCF913C
:10124000DF910895DF93CF9300D000D000D0CDB7C9
:10125000DEB78A836B8381E089838A81883010F0CE
:101260001E8272C08B81282F30E03D832C838C81BD
:101270009D818130910549F12C813D8122303105DC
:101280002CF48C819D81009761F05BC02C813D81A5
:101290002230310571F18C819D8183309105E9F116
:1012A00050C0ABE3B0E0EBE3F0E08081482F8A81EF
:1012B000282F30E081E090E0022E02C0880F991FB5
:1012C0000A94E2F784278C933DC0A8E3B0E0E8E3FA
:1012D000F0E08081482F8A81282F30E081E090E083
:1012E000022E02C0880F991F0A94E2F784278C937C
:1012F00029C0A5E3B0E0E5E3F0E08081482F8A81D2
:10130000282F30E081E090E0022E02C0880F991F64
:101310000A94E2F784278C9315C0A2E3B0E0E2E3DD
:10132000F0E08081482F8A81282F30E081E090E032
:10133000022E02C0880F991F0A94E2F784278C932B
:1013400001C0198299819E838E8126960FB6F894EA
:10135000DEBF0FBECDBFCF91DF910895DF93CF9356
:1013600000D000D00F92CDB7DEB78A836B8381E0C7
:1013700089838A81282F30E03D832C838C819D8155
:101380008130910531F12C813D81223031052CF4E1
:101390008C819D81009761F04FC02C813D8122306E
:1013A000310541F18C819D8183309105A1F144C0CB
:1013B0008B818F3F29F4EAE3F0E08FEF80833DC01B
:1013C0008B81882321F4EAE3F0E0108236C0198291
:1013D00034C08B818F3F29F4E7E3F0E08FEF808307
:1013E0002CC08B81882321F4E7E3F0E0108225C034
:1013F000198223C08B818F3F29F4E4E3F0E08FEF63
:1014000080831BC08B81882321F4E4E3F0E0108209
:1014100014C0198212C08B818F3F29F4E1E3F0E000
:101420008FEF80830AC08B81882321F4E1E3F0E011
:10143000108203C0198201C0198289810F900F9018
:101440000F900F900F90CF91DF910895DF93CF937E
:1014500000D000D00F92CDB7DEB78A836B8381E0D6
:1014600089838A81282F30E03D832C838C819D8164
:101470008130910531F12C813D81223031052CF4F0
:101480008C819D81009761F04FC02C813D8122307D
:10149000310541F18C819D8183309105A1F144C0DA
:1014A0008B818F3F29F4EBE3F0E08FEF80833DC029
:1014B0008B81882321F4EBE3F0E0108236C019829F
:1014C00034C08B818F3F29F4E8E3F0E08FEF808315
:1014D0002CC08B81882321F4E8E3F0E0108225C042
:1014E000198223C08B818F3F29F4E5E3F0E08FEF71
:1014F00080831BC08B81882321F4E5E3F0E0108218
:1015000014C0198212C08B818F3F29F4E2E3F0E00E
:101510008FEF80830AC08B81882321F4E2E3F0E01F
:10152000108203C0198201C0198289810F900F9027
:101530000F900F900F90CF91DF910895DF93CF938D
:1015400000D000D0CDB7DEB789836A838981282F88
:1015500030E03C832B838B819C818130910599F114
:101560002B813C81223031052CF48B819C810097AA
:1015700071F07CC02B813C812230310509F43FC0E1
:101580008B819C818330910509F455C06FC0ABE31A
:10159000B0E0EBE3F0E080818F708C938A818F70F4
:1015A0008A83ABE3B0E0EBE3F0E08081282F8A810F
:1015B000882F90E082959295907F9827807F98273A
:1015C000822B8C9353C0A8E3B0E0E8E3F0E0808185
:1015D0008F708C938A818F708A83A8E3B0E0E8E3F0
:1015E000F0E08081282F8A81882F90E08295929563
:1015F000907F9827807F9827822B8C9337C0A5E314
:10160000B0E0E5E3F0E080818F708C938A818F7089
:101610008A83A5E3B0E0E5E3F0E08081282F8A81AA
:10162000882F90E082959295907F9827807F9827C9
:10163000822B8C931BC0A2E3B0E0E2E3F0E0808158
:101640008F708C938A818F708A83A2E3B0E0E2E38B
:10165000F0E08081282F8A81882F90E082959295F2
:10166000907F9827807F9827822B8C930F900F90E4
:101670000F900F90CF91DF910895E199FECF9FBB1E
:101680008EBB6DBBE29AE19A0895E199FECF9FBBB4
:101690008EBBE09A8DB30895DF93CF93CDB7DEB7BD
:1016A000A5E5B0E0E5E5F0E0808182608C93A5E5FA
:1016B000B0E0E5E5F0E080818E7F8C93ABE5B0E0B3
:1016C000EBE5F0E0808180648C93CF91DF91089509
:1016D000DF93CF93CDB7DEB7A5E5B0E0E5E5F0E069
:1016E000808184608C93A5E5B0E0E5E5F0E0808141
:1016F000877F8C93ABE5B0E0EBE5F0E0808180681C
:101700008C93CF91DF910895DF93CF93CDB7DEB760
:10171000A4E5B0E0E4E5F0E080818F7B8C93ABE55D
:10172000B0E0EBE5F0E0808180628C93CF91DF91B7
:101730000895DF93CF93CDB7DEB7AFE5B0E0EFE527
:10174000F0E0808180688C93CF91DF910895DF93E2
:10175000CF93CDB7DEB7AFE5B0E0EFE5F0E0808145
:101760008F778C93CF91DF910895DF93CF93CDB78F
:10177000DEB784E060E041E00E94830685E060E03F
:1017800041E00E94830686E060E041E00E9483061B
:1017900087E060E041E00E94830681E061E041E093
:1017A0000E94830683E061E041E00E948306CF91BE
:1017B000DF910895DF93CF93CDB7DEB7A0970FB633
:1017C000F894DEBF0FBECDBF88A388A19AE0692F31
:1017D0000E94DA0F8F8F88A19AE0692F0E94DA0F9A
:1017E000892F8E8F1D8E08C18D8D882309F081C0B1
:1017F00083E061E041E00E94920780E06E8D0E94EC
:101800009E0A80E090E0A0EAB0E4898F9A8FAB8FC7
:10181000BC8F698D7A8D8B8D9C8D20E030E04AE7FE
:1018200055E40E941F02DC01CB018D8B9E8BAF8B98
:10183000B88F6D897E898F89988D20E030E040E8EF
:101840005FE30E94790388232CF481E090E09C8B75
:101850008B8B3FC06D897E898F89988D20E03FEF0B
:101860004FE757E40E94190318164CF5698D7A8DDD
:101870008B8D9C8D20E030E040E251E40E941F02FD
:10188000DC01CB01BC01CD010E944900DC01CB0190
:101890009C8B8B8B0FC080E991E09A8B898B898917
:1018A0009A890197F1F79A8B898B8B899C8901978B
:1018B0009C8B8B8B8B899C89009769F714C06D89F1
:1018C0007E898F89988D0E944900DC01CB019C8B19
:1018D0008B8B8B899C89988B8F878F8598890197B3
:1018E000F1F7988B8F8783E061E040E00E949207D8
:1018F00080C081E061E041E00E94920780E06F8D4E
:101900000E949E0A80E090E0A0EAB0E48B879C876A
:10191000AD87BE876B857C858D859E8520E030E018
:101920004AE755E40E941F02DC01CB018F839887B0
:10193000A987BA876F81788589859A8520E030E00C
:1019400040E85FE30E94790388232CF481E090E073
:101950009E838D833FC06F81788589859A8520E03D
:101960003FEF4FE757E40E94190318164CF56B85BB
:101970007C858D859E8520E030E040E251E40E9428
:101980001F02DC01CB01BC01CD010E944900DC013A
:10199000CB019E838D830FC080E991E09C838B8374
:1019A0008B819C810197F1F79C838B838D819E8134
:1019B00001979E838D838D819E81009769F714C066
:1019C0006F81788589859A850E944900DC01CB0169
:1019D0009E838D838D819E819A83898389819A815B
:1019E0000197F1F79A83898381E061E040E00E94EA
:1019F00092078D8D8F5F8D8F8D8D823008F4F4CEA0
:101A0000A0960FB6F894DEBF0FBECDBFCF91DF9189
:101A10000895DF93CF93CDB7DEB7A5E4B0E0E5E45A
:101A2000F0E0808188608C93A5E4B0E0E5E4F0E02C
:101A3000808180648C93A5E4B0E0E5E4F0E08081EF
:101A4000887F8C93A5E4B0E0E5E4F0E080818560D8
:101A50008C93CF91DF910895DF93CF930F92CDB701
:101A6000DEB78983E4E4F0E0898180830F90CF9131
:101A7000DF910895DF93CF93CDB7DEB727970FB6E9
:101A8000F894DEBF0FBECDBF1B821A8280E00E9499
:101A9000DB059F838E838E819F81CC01A0E0B0E027
:101AA00028E833E140E050E0BC01CD010E94BB0FCB
:101AB000DC01CB01072E7AE0B695A795979587951F
:101AC0007A95D1F7702D9D838C838C819D812AE03E
:101AD00030E0B9010E94E60FCB019D838C83809199
:101AE0008900882F90E0880F991FFC01EB58FF4F69
:101AF0008C819D819183808380918900893019F444
:101B00001092890005C0809189008F5F80938900C1
:101B1000198213C08981882F90E0880F991FFC01DA
:101B2000EB58FF4F208131818A819B81820F931F67
:101B30009B838A8389818F5F898389818A3050F36F
:101B40008A819B812AE030E0B9010E94E60FCB0137
:101B50009B838A838A819B8127960FB6F894DEBF88
:101B60000FBECDBFCF91DF910895DF93CF930F923A
:101B7000CDB7DEB782E063E040E00E94830682E0FA
:101B800063E041E00E94920783E063E040E00E944E
:101B9000830683E063E041E00E94920782E061E017
:101BA00040E00E94830682E061E041E00E949207EB
:101BB00081E062E041E00E94830683E062E041E070
:101BC0000E94830684E062E041E00E94830619825D
:101BD00080E090E00E94450B898389818F3F39F036
:101BE0008981882F90E090936E0080936D000E9411
:101BF000A3050E94B50B0E944C0B0E94680B0E942B
:101C0000840B0E94830F0E94090D0E94990B84EDA2
:101C10000E94AD0F84ED0E942C0D80916A008823F4
:101C2000D1F484E062E040E00E94920783E062E049
:101C300040E00E94920781E062E040E00E9492074B
:101C400081E061E040E00E94920783E061E040E0D3
:101C50000E949207E2CF80916900863008F441C06B
:101C600084E062E040E00E94920783E062E040E0AE
:101C70000E94920781E062E040E00E94920780911A
:101C80007300882321F4809168000E94DA0B809110
:101C90006900873010F280916B00813059F4809197
:101CA00068008B3429F0809168008B5F8093680016
:101CB00010926B0080916C00813059F48091680023
:101CC000833229F0809168008550809368001092DB
:101CD0006C002091680080E090E0622F0E943D0B34
:101CE0009CCF85E08093690010926F001092700085
:101CF00010927100109272000E943A0D90936E0043
:101D000080936D0080916D0090916E000E94DA0BBF
:101D100080916800282F30E080916D0090916E00D6
:101D200005978217930778F084E062E040E00E9414
:101D3000920783E062E041E00E94920781E062E066
:101D400041E00E94920780916800282F30E0809146
:101D50006D0090916E0005962817390708F45DCF45
:101D600083E062E040E00E94920784E062E041E0AC
:101D70000E94920780917300882331F481E062E031
:101D800041E00E94920749CF81E062E040E00E947A
:101D9000920743CF1F920F920FB60F9211248F9389
:101DA000DF93CF93CDB7DEB780916A00882321F40B
:101DB00081E080936A0002C010926A00CF91DF91A7
:101DC0008F910F900FBE0F901F9018951F920F923A
:101DD0000FB60F9211248F93DF93CF93CDB7DEB759
:101DE00081E080936B00809169008F5F8093690030
:101DF00010926F0010927000109271001092720099
:101E000010927300CF91DF918F910F900FBE0F90C2
:101E10001F9018951F920F920FB60F9211248F9357
:101E2000DF93CF93CDB7DEB781E080936C008091D4
:101E300069008F5F8093690010926F0010927000AC
:101E4000109271001092720010927300CF91DF9186
:101E50008F910F900FBE0F901F9018951F920F92A9
:101E60000FB60F9211242F938F939F93AF93BF932D
:101E7000DF93CF93CDB7DEB780916F009091700064
:101E8000A0917100B09172000196A11DB11D8093C7
:101E90006F0090937000A0937100B09372008091D6
:101EA0006F0090917000A0917100B0917200863324
:101EB00021E0920720E0A20720E0B20719F485E0B4
:101EC00080936900809174008F5F8093740080918B
:101ED00074008D3361F480917300882321F481E0D4
:101EE0008093730002C01092730010927400CF911F
:101EF000DF91BF91AF919F918F912F910F900FBE66
:101F00000F901F901895DF93CF93CDB7DEB7A3E561
:101F1000B0E0E3E5F0E08081877F8C93A3E5B0E05B
:101F2000E3E5F0E080818F7B8C93A9E5B0E0E9E503
:101F3000F0E0808181608C93A3E5B0E0E3E5F0E020
:101F40008081887F8C93A3E5B0E0E3E5F0E08081B9
:101F500085608C93CF91DF910895DF93CF930F929B
:101F6000CDB7DEB78983E2E5F0E0898180830F9009
:101F7000CF91DF910895629FD001739FF001829FFE
:101F8000E00DF11D649FE00DF11D929FF00D839F08
:101F9000F00D749FF00D659FF00D9927729FB00DA5
:101FA000E11DF91F639FB00DE11DF91FBD01CF01B8
:101FB00011240895991B79E004C0991F961708F021
:101FC000961B881F7A95C9F780950895AA1BBB1B9D
:101FD00051E107C0AA1FBB1FA617B70710F0A61B29
:101FE000B70B881F991F5A95A9F780959095BC014A
:101FF000CD0108952F923F924F925F926F927F9200
:102000008F929F92AF92BF92CF92DF92EF92FF9208
:102010000F931F93CF93DF93CDB7DEB7CA1BDB0BB4
:102020000FB6F894DEBF0FBECDBF09942A88398859
:1020300048885F846E847D848C849B84AA84B98460
:10204000C884DF80EE80FD800C811B81AA81B9816C
:10205000CE0FD11D0FB6F894DEBF0FBECDBFED0180
:062060000895F894FFCF83
:0A20660000000000000000003C052F
:00000001FF
